:060000000A128A11EA2F2A
:100D2E003F3406345B344F3466346D347D340734CF
:100D3E007F346F3477347C3439345E3479347134A3
:100D4E007E088A007F0882000A128A11A7260A12DC
:100D5E008A118000840A04087D0603190034FF0AF4
:100D6E000319FE0AAB2E1030F0000030F1007A08A5
:100D7E00F3007908F2000A128A110D270A128A115D
:100D8E00700883120313B10079080F39B000080000
:100D9E0083160317890188018316031387018312B3
:100DAE0003138701860188018316031388018614B5
:100DBE00061586150612861206100F088F39603832
:100DCE008F000F142130F000F00BEB2E080083166D
:100DDE000313050801388500831603170808013828
:100DEE008800831203139F131F17831603139F127A
:100DFE001F129F13831203139F121F129F111F1195
:100E0E001F142130F000F00B0A2F0800F601F11F1D
:100E1E00112F122F192FF009F109F00A0319F10AF7
:100E2E00F601F60AF31F1C2F1D2F262FF209F309C8
:100E3E00F20A0319F30A0130F4007408F606F701FA
:100E4E00F8017008710403192D2F2E2F652FF5014F
:100E5E00F50A3C2F01300310F00DF10DFF3E031D7E
:100E6E00322F0130F4007408F507F11F3F2F402F89
:100E7E00312F01300310F70DF80DFF3E031D412FEA
:100E8E0071087302031D4D2F70087202031C502F40
:100E9E00512F582F7008F2027108031CF303F3024E
:100EAE00771401300310F10CF00CFF3E031D592F87
:100EBE000130F502031D642F652F402F76080319AC
:100ECE00692F6A2F6F2FF709F809F70A0319F80A25
:100EDE007808F1007708F00008000A128A11CF2670
:100EEE000A128A110A128A11EE260A128A11831226
:100EFE0003139F149F18842F852F812F0C131E0808
:100F0E00FD007D08B2007D08FB00FC017B08F900A6
:100F1E007C08FA000A128A11BA260A128A11831262
:100F2E000313061686123008203E84008313000831
:100F3E0088000D30FC00FB30FB00FB0BA42FFC0BDC
:100F4E00A42FA92F83120313061286163108203EF2
:100F5E0084008313000888000D30FC00FB30FB007A
:100F6E00FB0BB72FFC0BB72FBC2F83120313861C62
:100F7E00C12FC22FCB2F8618C52FC62FC22F0130DF
:100F8E00FB007B0887077E2F061DCE2FCF2FD62F77
:100F9E000619D22FD32FCF2F013087027E2F861D19
:100FAE00D92FDA2FE42F320807020318DF2FE02F94
:100FBE00E22F06147E2F06107E2F070887007E2F45
:100FCE000A128A11002883133030FD000630FE000D
:100FDE009730FF00203084000A128A11AB260A12C5
:100FEE008A11B001B101B201FD0183010A128A1109
:020FFE00742F4E
:08400000FF3FFF3FFF3FFF3FC0
:04400E00D420FF3F7C
:00000001FF
